{
  "contractName": "Election",
  "abi": [
    {
      "inputs": [],
      "stateMutability": "nonpayable",
      "type": "constructor"
    },
    {
      "anonymous": false,
      "inputs": [
        {
          "indexed": false,
          "internalType": "string",
          "name": "mine",
          "type": "string"
        },
        {
          "indexed": true,
          "internalType": "uint256",
          "name": "_candidateId",
          "type": "uint256"
        }
      ],
      "name": "votedEvent",
      "type": "event"
    },
    {
      "inputs": [
        {
          "internalType": "uint256",
          "name": "",
          "type": "uint256"
        }
      ],
      "name": "candidates",
      "outputs": [
        {
          "internalType": "uint256",
          "name": "id",
          "type": "uint256"
        },
        {
          "internalType": "string",
          "name": "name",
          "type": "string"
        },
        {
          "internalType": "uint256",
          "name": "voteCount",
          "type": "uint256"
        }
      ],
      "stateMutability": "view",
      "type": "function",
      "constant": true
    },
    {
      "inputs": [],
      "name": "candidatesCount",
      "outputs": [
        {
          "internalType": "uint256",
          "name": "",
          "type": "uint256"
        }
      ],
      "stateMutability": "view",
      "type": "function",
      "constant": true
    },
    {
      "inputs": [
        {
          "internalType": "address",
          "name": "",
          "type": "address"
        }
      ],
      "name": "voters",
      "outputs": [
        {
          "internalType": "bool",
          "name": "",
          "type": "bool"
        }
      ],
      "stateMutability": "view",
      "type": "function",
      "constant": true
    },
    {
      "inputs": [
        {
          "internalType": "string",
          "name": "_name",
          "type": "string"
        }
      ],
      "name": "addCandidate",
      "outputs": [],
      "stateMutability": "nonpayable",
      "type": "function"
    },
    {
      "inputs": [
        {
          "internalType": "uint256",
          "name": "_candidateId",
          "type": "uint256"
        }
      ],
      "name": "vote",
      "outputs": [],
      "stateMutability": "nonpayable",
      "type": "function"
    },
    {
      "inputs": [],
      "name": "winner",
      "outputs": [
        {
          "internalType": "string",
          "name": "winnerNameString",
          "type": "string"
        }
      ],
      "stateMutability": "view",
      "type": "function",
      "constant": true
    }
  ],
  "bytecode": "0x60806040523480156200001157600080fd5b50336000806101000a81548173ffffffffffffffffffffffffffffffffffffffff021916908373ffffffffffffffffffffffffffffffffffffffff160217905550620000986040518060400160405280600d81526020017f53686f6169622068757361696e00000000000000000000000000000000000000815250620000e460201b60201c565b620000de6040518060400160405280600481526020017f4172756e00000000000000000000000000000000000000000000000000000000815250620000e460201b60201c565b6200044a565b60008054906101000a900473ffffffffffffffffffffffffffffffffffffffff1673ffffffffffffffffffffffffffffffffffffffff163373ffffffffffffffffffffffffffffffffffffffff161462000175576040517f08c379a00000000000000000000000000000000000000000000000000000000081526004016200016c90620002f3565b60405180910390fd5b6001600360008282546200018a919062000326565b92505081905550604051806060016040528060035481526020018281526020016000815250600260006003548152602001908152602001600020600082015181600001556020820151816001019080519060200190620001ec9291906200021c565b50604082015181600201559050506040518060600160405280600354815260200182815260200160008152505050565b8280546200022a906200038d565b90600052602060002090601f0160209004810192826200024e57600085556200029a565b82601f106200026957805160ff19168380011785556200029a565b828001600101855582156200029a579182015b82811115620002995782518255916020019190600101906200027c565b5b509050620002a99190620002ad565b5090565b5b80821115620002c8576000816000905550600101620002ae565b5090565b6000620002db60138362000315565b9150620002e88262000421565b602082019050919050565b600060208201905081810360008301526200030e81620002cc565b9050919050565b600082825260208201905092915050565b6000620003338262000383565b9150620003408362000383565b9250827fffffffffffffffffffffffffffffffffffffffffffffffffffffffffffffffff03821115620003785762000377620003c3565b5b828201905092915050565b6000819050919050565b60006002820490506001821680620003a657607f821691505b60208210811415620003bd57620003bc620003f2565b5b50919050565b7f4e487b7100000000000000000000000000000000000000000000000000000000600052601160045260246000fd5b7f4e487b7100000000000000000000000000000000000000000000000000000000600052602260045260246000fd5b7f43616c6c6572206973206e6f74206f776e657200000000000000000000000000600082015250565b610c24806200045a6000396000f3fe608060405234801561001057600080fd5b50600436106100625760003560e01c80630121b93f146100675780632d35a8a2146100835780633477ee2e146100a1578063462e91ec146100d3578063a3ec138d146100ef578063dfbf53ae1461011f575b600080fd5b610081600480360381019061007c9190610736565b61013d565b005b61008b61026b565b6040516100989190610879565b60405180910390f35b6100bb60048036038101906100b69190610736565b610271565b6040516100ca93929190610894565b60405180910390f35b6100ed60048036038101906100e891906106f5565b610323565b005b610109600480360381019061010491906106cc565b610454565b60405161011691906107fc565b60405180910390f35b610127610474565b6040516101349190610817565b60405180910390f35b600160003373ffffffffffffffffffffffffffffffffffffffff1673ffffffffffffffffffffffffffffffffffffffff16815260200190815260200160002060009054906101000a900460ff161561019457600080fd5b6000811180156101a657506003548111155b6101af57600080fd5b60018060003373ffffffffffffffffffffffffffffffffffffffff1673ffffffffffffffffffffffffffffffffffffffff16815260200190815260200160002060006101000a81548160ff02191690831515021790555060026000828152602001908152602001600020600201600081548092919061022d90610a87565b9190505550807f8f0f7d03219948a2b8739cb4611b7300a297fbae05e48e93b4b862dd5221157960405161026090610859565b60405180910390a250565b60035481565b600260205280600052604060002060009150905080600001549080600101805461029a90610a24565b80601f01602080910402602001604051908101604052809291908181526020018280546102c690610a24565b80156103135780601f106102e857610100808354040283529160200191610313565b820191906000526020600020905b8154815290600101906020018083116102f657829003601f168201915b5050505050908060020154905083565b60008054906101000a900473ffffffffffffffffffffffffffffffffffffffff1673ffffffffffffffffffffffffffffffffffffffff163373ffffffffffffffffffffffffffffffffffffffff16146103b1576040517f08c379a00000000000000000000000000000000000000000000000000000000081526004016103a890610839565b60405180910390fd5b6001600360008282546103c49190610944565b92505081905550604051806060016040528060035481526020018281526020016000815250600260006003548152602001908152602001600020600082015181600001556020820151816001019080519060200190610424929190610597565b50604082015181600201559050506040518060600160405280600354815260200182815260200160008152505050565b60016020528060005260406000206000915054906101000a900460ff1681565b606060005b600354811161055a576005600260008381526020019081526020016000206002015410610547576002600082815260200190815260200160002060010180546104c190610a24565b80601f01602080910402602001604051908101604052809291908181526020018280546104ed90610a24565b801561053a5780601f1061050f5761010080835404028352916020019161053a565b820191906000526020600020905b81548152906001019060200180831161051d57829003601f168201915b5050505050915050610594565b808061055290610a87565b915050610479565b506040518060400160405280601481526020017f57696e6e6572206973206e6f742073656c65637400000000000000000000000081525090505b90565b8280546105a390610a24565b90600052602060002090601f0160209004810192826105c5576000855561060c565b82601f106105de57805160ff191683800117855561060c565b8280016001018555821561060c579182015b8281111561060b5782518255916020019190600101906105f0565b5b509050610619919061061d565b5090565b5b8082111561063657600081600090555060010161061e565b5090565b600061064d610648846108f7565b6108d2565b90508281526020810184848401111561066557600080fd5b6106708482856109e2565b509392505050565b60008135905061068781610bc0565b92915050565b600082601f83011261069e57600080fd5b81356106ae84826020860161063a565b91505092915050565b6000813590506106c681610bd7565b92915050565b6000602082840312156106de57600080fd5b60006106ec84828501610678565b91505092915050565b60006020828403121561070757600080fd5b600082013567ffffffffffffffff81111561072157600080fd5b61072d8482850161068d565b91505092915050565b60006020828403121561074857600080fd5b6000610756848285016106b7565b91505092915050565b610768816109ac565b82525050565b600061077982610928565b6107838185610933565b93506107938185602086016109f1565b61079c81610b5d565b840191505092915050565b60006107b4601383610933565b91506107bf82610b6e565b602082019050919050565b60006107d7600f83610933565b91506107e282610b97565b602082019050919050565b6107f6816109d8565b82525050565b6000602082019050610811600083018461075f565b92915050565b60006020820190508181036000830152610831818461076e565b905092915050565b60006020820190508181036000830152610852816107a7565b9050919050565b60006020820190508181036000830152610872816107ca565b9050919050565b600060208201905061088e60008301846107ed565b92915050565b60006060820190506108a960008301866107ed565b81810360208301526108bb818561076e565b90506108ca60408301846107ed565b949350505050565b60006108dc6108ed565b90506108e88282610a56565b919050565b6000604051905090565b600067ffffffffffffffff82111561091257610911610b2e565b5b61091b82610b5d565b9050602081019050919050565b600081519050919050565b600082825260208201905092915050565b600061094f826109d8565b915061095a836109d8565b9250827fffffffffffffffffffffffffffffffffffffffffffffffffffffffffffffffff0382111561098f5761098e610ad0565b5b828201905092915050565b60006109a5826109b8565b9050919050565b60008115159050919050565b600073ffffffffffffffffffffffffffffffffffffffff82169050919050565b6000819050919050565b82818337600083830152505050565b60005b83811015610a0f5780820151818401526020810190506109f4565b83811115610a1e576000848401525b50505050565b60006002820490506001821680610a3c57607f821691505b60208210811415610a5057610a4f610aff565b5b50919050565b610a5f82610b5d565b810181811067ffffffffffffffff82111715610a7e57610a7d610b2e565b5b80604052505050565b6000610a92826109d8565b91507fffffffffffffffffffffffffffffffffffffffffffffffffffffffffffffffff821415610ac557610ac4610ad0565b5b600182019050919050565b7f4e487b7100000000000000000000000000000000000000000000000000000000600052601160045260246000fd5b7f4e487b7100000000000000000000000000000000000000000000000000000000600052602260045260246000fd5b7f4e487b7100000000000000000000000000000000000000000000000000000000600052604160045260246000fd5b6000601f19601f8301169050919050565b7f43616c6c6572206973206e6f74206f776e657200000000000000000000000000600082015250565b7f766f746564207269676874206e6f770000000000000000000000000000000000600082015250565b610bc98161099a565b8114610bd457600080fd5b50565b610be0816109d8565b8114610beb57600080fd5b5056fea26469706673582212206cdd1af681735ab9559dc616e0db24d0f6a5b6329d7b366be8aabdbb4183d42464736f6c63430008040033",
  "immutableReferences": {},
  "source": "// SPDX-License-Identifier: MIT\npragma solidity >=0.7.0 <=0.8.17;\n\n\ncontract Election {\n     // Model a Candidate\n     struct Candidate {\n          uint id;\n          string name;\n          uint voteCount;\n     }\n\n     address private owner;\n\n     mapping (address => bool) public voters;\n     mapping(uint => Candidate) public candidates;\n     uint public candidatesCount;\n\n\n\n     event votedEvent (string mine, uint indexed _candidateId);\n\n\n     constructor () {\n          owner = msg.sender; \n\n          addCandidate(\"Shoaib husain\");\n          addCandidate(\"Arun\");\n     }\n\n\n     modifier isOwner() {\n        require(msg.sender == owner, \"Caller is not owner\");\n        _;\n     }\n\n\n     function addCandidate (string memory _name) public isOwner{\n          candidatesCount+=1;\n          candidates[candidatesCount] = Candidate(candidatesCount, _name,0);\n          Candidate(candidatesCount, _name, 0);\n     }\n\n\n     function vote(uint _candidateId) public{\n\n          // require that they haven't voted before\n          require(!voters[msg.sender]);\n\n          \n         \n          // require a valid candidate\n          require(_candidateId > 0 && _candidateId <= candidatesCount);\n          // record that voter has voted\n          voters[msg.sender] = true;\n          // update candidate vote Count\n          candidates[_candidateId].voteCount ++;\n\n          // trigger voted event\n          emit votedEvent(\"voted right now\", _candidateId);\n\n     }\n\n\n     function winner () public view returns(string memory winnerNameString) {\n          for(uint i =0; i <= candidatesCount; i++ ){\n             if(candidates[i].voteCount >= 5){\n               // return string.concat(\"this person is the winner \", candidates[i].name);\n               return candidates[i].name;\n           }\n        }\n     return \"Winner is not select\";\n     }\n\n\n}",
  "sourcePath": "/home/chayanbajaj/Downloads/Election-Blockchain-Project-main/contracts/Election.sol",
  "compiler": {
    "name": "solc",
    "version": "0.8.4+commit.c7e474f2.Emscripten.clang"
  },
  "schemaVersion": "3.4.10",
  "updatedAt": "2022-09-27T15:18:58.198Z",
  "networkType": "ethereum",
  "devdoc": {
    "kind": "dev",
    "methods": {},
    "version": 1
  },
  "userdoc": {
    "kind": "user",
    "methods": {},
    "version": 1
  }
}